:100000000C94190B0C94410B0C94410B0C94410B68
:100010000C94410B0C94410B0C94410B0C94410B30
:100020000C94410B0C94410B0C94B1180C942319B3
:100030000C94410B0C94410B0C94410B0C94410B10
:100040000C94410B0C940E0E0C94410B0C94410B30
:100050000C94410B0C94410B0C94410B0C94160D19
:100060000C94410B0C94410B0C94410B0C94410BE0
:100070000C94410B0C94410B0C94410B0C94410BD0
:100080000C94AC0E0C94410B0C94410B0C94410B52
:100090000C94410B0C94410B0C94410B0C94410BB0
:1000A0000C94410B0C94410B0C94410B9F0BA20B35
:1000B000910B950B990BC30BC30BC30BA60BAA0B90
:1000C000AE0BB40BB80BC30BBE0B3A0C3F0C440C7D
:1000D0004E0C580CA20CA20CA20C620C6C0C760CF0
:1000E000800C8D0CA20C950CF0F89C8E8783878E6B
:1000F0009CF8F00000FEFF0303030303070EFCF867
:100100000000FEFF0303030303070EFCF80000FFDB
:10011000FF00000000000000FFFF0000FEFF8383DF
:10012000838383C7EE7C380000F8FC0E07030303CB
:10013000070EFCF800003F7FE0C08080C0E07F3FFA
:10014000FFFF01010101010101FFFF0000FFFF0CA2
:100150000C0C0C1C3E77E3C100007FFFC0C0C0C088
:10016000C0E0703F1F00001F3F70E0C0C0C0E070E3
:100170003F1F00007FFFC1C1C1C1C1E3773E1C002A
:10018000001F3F70E0C0C0C0E0703F1F00000000D3
:100190000001FFFF01000000000000002400270014
:1001A0002A002D003000D5F08D14A1C881CFD9F1DF
:1001B000AF20001402130212021502070208020403
:1001C000010C0106010008084A9C25F9F8259C4A03
:1001D0000300010101010001010002030302000309
:1001E0006474AC98AC7464001318120604080B060F
:1001F000070A0406121813000C12564E54320C0053
:100200001318150305080B06070A05031518130034
:10021000080800583068540A0503001A0C162A50C2
:10022000A0C01E3F7FFE7F3F1E001E214182412154
:100230001E00F8BCBE1F4F271107F8A4A2114927C2
:1002400011073C7E73BDCE7E3C0018366F6F7B7B02
:10025000360C003864F6FEFE7C380038449A8A82F8
:100260004438824B1DB8B81D4B82824B15A8A81587
:100270004B82C0A0702816090906C0A07028160F6E
:100280000F0608FE92C600F0800070807000F0B08B
:100290009000F010EC04FB046C80F000F050A00023
:1002A000F0B0907C927400F028F000F060F000F064
:1002B000B09000007C827C007080F000F0B0900074
:1002C000F050A03EC03E00E8006090900C04FB049B
:1002D0006C90F06000F050A00030C0300000B8001A
:1002E000B80000010101010101010101010000004C
:1002F00000010101000000000000010100000000F9
:1003000000000001010100000101010100000100E5
:1003100000000102020202020202020202000000C8
:1003200000020202000000000000020200000000C3
:1003300000000002020200000202020000000000B1
:1003400000000100000000000000000200000200A8
:100350000000020000000000000002010000030392
:100360000000000202000000000000020000000087
:10037000000303020000000003030300000000006C
:100380000002020303000000000002030303000058
:10039000000002020303030303030302020200003E
:1003A0000000000303030303030303020000000033
:1003B0000000030000000000000003040404040423
:1003C000040404040000000000000404040400000D
:1003D0000404040400000500000004040000000000
:1003E0000000000400000500000000000000000004
:1003F00000000400000005000000040001020202E9
:1004000003030202020104040102020502020502C2
:1004100002010404010202020303020202010006B7
:100420000708080809090808080706060708080851
:100430000909080808070A0A070808080808080838
:10044000080808080808080809090808080706062F
:10045000070808080909080808070600010202023F
:100460000B0B02020202020202020202020202025A
:1004700002010404010202050C0C0502020100063F
:100480000708080D0C0C0D0808070A0A07080808D9
:100490000C0C0808080706060708080D09090D08CE
:1004A00008070A0A070808080E0E080808070606C3
:1004B0000708080D0C0C0D080807060001020202CF
:1004C0000F0F0202020104040102020202020202F0
:1004D00002010404010202050B0B050202010006E1
:1004E000070808080C0C080808070606070808088B
:1004F0000C0C080808070A0A070808080C0C08086A
:10050000080706060708080809090808080808086F
:10051000080808080E0E0808080706060708080855
:100520000E0E08080808080808080808080808083F
:1005300008070A0A100909090909091112121212F9
:10054000121212110C0C0909091006060708080DF1
:100550000E0E0D0808070606070808080E0E080804
:1005600008070A0A0708080D0E0E0D0808070A0AF0
:100570000708080808080808080706060708080802
:100580000909080808070A0A0708080D08080D08DD
:1005900008070A0A130E0E0E0E0E0E141515151569
:1005A000151515140E0E0E0E0E1306060708080874
:1005B0000909080808070A0A0708080D08080D08AD
:1005C00008070A0A070808080909080808070A0AA4
:1005D000100909090909090909091600010202029D
:1005E0000C0C0202020100000102020203030202DB
:1005F00002010404010202050202050202010404D0
:10060000010202020F0F020202010006171009097F
:100610000C0C0909111212121212121212121212D9
:1006200012121212121212110C0C090909100606EC
:100630000C0C0C0C0C0C0C0C0C0C18000102020223
:100640000C0C020202010404010202050B0B05025C
:10065000020104040102020202020202020100007D
:10066000010202020B0B02020201040A130E0E0E1B
:100670000E0E0E0E14151515151515151515151547
:1006800015151515151515140E0E0E0E0E1306065E
:100690000C0C0C0C0C0C0C0C0C0C180001020205C0
:1006A0000B0B050202010404010202020202020213
:1006B000020202020202020202020202020100001F
:1006C00001020202020202020201040A07080808EB
:1006D0000808080808070A0A070819191919191932
:1006E000191919191919191919191919191919197A
:1006F0001A1A1A1A1A1A1A1A1A1A181B1C1C1C1C53
:100700001C1C1C1C1C1C1D1D1C1C1C1E1F1F1E1C1D
:100710001C1C1B1B1C1C1C1C1F1F1C1C1C1C1C1C15
:100720001C1C1C1C1F1F1C1C1C1C1D0A0708080865
:10073000090908080807061B1C1C1C1C1F1F1C1C81
:100740001C1C1D1D1C1C1C1C1C1C1C1C1C1C1D1DE5
:100750001C1C1C1C1F1F1C1C1C1C1B1B1F1F1F20C8
:100760001F1F201F1F1F1F1F1F1F1F200C0C201FBC
:100770001F1F1D1D1C1C1C1E0C0C1E1C1C1C1B1BCF
:100780001C1C1C1E0C0C1E1C1C1C1B06070808082D
:100790000C0C080808070A0A0708080D0E0E0D08B9
:1007A0000807061B1C1C1C1C1F1F1C1C1C1C1C1CC3
:1007B0001C1C1C1E21211E1C1C1C1B1B2121212258
:1007C0000C0C222121212121212121222121222140
:1007D00021211B1B1C1C1C1C0C0C1C1C1C1C1B1B73
:1007E0001C1C1C1C0C0C1C1C1C1C1B0607080808D1
:1007F0000C0C08080807061B1C1C1C1C1F1F1C1CBB
:100800001C1C1B1B1F1F1F200C0C201F1F1F1F1F2A
:100810001F1F1F201F1F201F1F1F1B1B1C1C1C1CFA
:100820000C0C1C1C1C1C1B1B1C1C1C1C1C1C1C1C2A
:100830001C1C1D1D1C1C1C1C21211C1C1C1C1D1DEA
:100840001C1C1C1C21211C1C1C1C1B060708080D41
:100850000C0C0D080807061B1C1C1C1C0C0C1C1C7B
:100860001C1C1B1B2121212221212221212121218C
:10087000212121220C0C222121211B1B1C1C1C1CB0
:1008800021211C1C1C1C1D1D1C1C1C1E1C1C1E1C98
:100890001C1C1D1D1C1C1C1C1C1C1C1C1C1C1B1B98
:1008A0001C1C1C1C1C1C1C1C1C1C1D0A07080808EA
:1008B0000C0C08080807061B1C1C1C1E0C0C1E1C1C
:1008C0001C1C1B1B1C1C1C1E1F1F1E1C1C1C1B1B62
:1008D0001C1C1C1C0C0C1C1C1C1C1B0607080808E0
:1008E0000909080808070A0A070808080808080884
:1008F00008070A0A0708080D08080D0808070A0A69
:10090000070808080808080808070A0A0708080866
:100910000C0C08080807061B1C1C1C1C21211C1C95
:100920001C1C1D1D1C1C1C1C0C0C1C1C1C1C1B1B27
:100930001C1C1C1E0C0C1E1C1C1C1B06070808087B
:100940000E0E08080807061B1C1C1C1E1F1F1E1C61
:100950001C1C1D1D1C1C1C1C1F1F1C1C1C1C1C1CCF
:100960001C1C1C1C1F1F1C1C1C1C1B060708080829
:100970000E0E08080807061B1C1C1C1E1F1F1E1C31
:100980001C1C1B1B1C1C1C1C0C0C1C1C1C1C1D1DC7
:100990001C1C1C1C21211C1C1C1C1B1B1C1C1C1C8F
:1009A0001C1C1C1C1C1C1D1D1C1C1C1C21211C1C7B
:1009B0001C1C1D1D1C1C1C1C21211C1C1C1C1B1B6D
:1009C0001C1C1C1C21211C1C1C1C1D1D1C1C1C1E59
:1009D0001C1C1E1C1C1C1D1D1C1C1C1C21211C1C49
:1009E0001C1C1D1D1C1C1C1C21211C1C1C1C1D1D39
:1009F0001C1C1C1C1C1C1C1C1C1C1B08080018306C
:100A0000447644301802012C2904131703061310EE
:100A100005282B07031820587C5820180007032CA2
:100A20002D05101306071310052D2C010224744602
:100A3000743A0A1C00171A05051316000007021560
:100A40001503000000001C0A3A74467424000016C6
:100A50001305051A170000000315150207004810BA
:100A6000FF034010FF030810FF3C2818FF00482830
:100A7000FF001810FF001810FF032010FF0348109C
:100A8000FF001028FF034818FF034028FF03181039
:100A9000FF031008FF001828FF004010FF0018286F
:100AA000FF383818FF362018FF001828FF031818E1
:100AB000FF064810FF064810FF034010FF064010D5
:100AC000FF061010FF064810FF064810FF06101022
:100AD000FF061028FF032010FF3A2018FF064810D9
:100AE000FF061010FF064828FF064028FF064810A2
:100AF000FF064810FF061028FF032810FF034010D0
:100B0000FF061010FF3E1820FF061828FF064810A9
:100B1000FF382018FF061010FF064828FF06181897
:100B2000FFFFFF0001FFFF020304FFFFFFFFFFFFC6
:100B3000FFFF05FF0607FF08FFFF09FF0AFF0BFF86
:100B4000FF0CFF0DFFFFFFFFFFFFFFFFFFFFFFFF9A
:100B5000FF0EFF0F10FFFFFFFFFFFF111213FF1427
:100B6000FFFF15FF1617FF18FF19FFFFFFFFFF1A02
:100B7000FFFF1B1C1D1E1F20FFFF21FF22FF23FF65
:100B8000FF24FF25FFFFFFFF26FF27FFFF2829FF88
:100B9000FF2AFFFF2BFFFFFF2C2D2E2FFFFFFF3023
:100BA000FFA403BA02A403A40316049704DC04758B
:100BB00005000075057505C8057D06490749077DCF
:100BC00006C8057D06C80575057505DC04DC0475D9
:100BD00005C8057505DC0455045504DC047505DC01
:100BE000045504160416049704260520067505BA54
:100BF00002BA02BA02BA02BA02BA02BA02BA02BA15
:100C000002BA02A403BA02A403A40316049704DCE4
:100C1000047505000075057505C8057D064907AA18
:100C2000082D08E0067505C8054907E00675057535
:100C300005C8054907E00675059704DC04C8057575
:100C4000055504A40316049704260520067505BA65
:100C500002BA02BA02BA02BA02BA02BA02BA02BAB4
:100C600002BA021003A4039704DC041003A4039740
:100C700004DC041003A4039704DC041003A403970A
:100C800004DC04E40270039704DC04E402700397BC
:100C900004DC04E40270039704DC04E402700397AC
:100CA00004DC04BA023F039704DC04BA023F039752
:100CB00004DC04BA023F039704DC04BA023F039742
:100CC00004DC04930210039704DC049302100397DE
:100CD00004DC04930210039704DC049302100397CE
:100CE00004DC046E021003160497046E021003164F
:100CF0000497046E021003160497046E0210031684
:100D00000497044B021003160497044B02100316B9
:100D10000497044B021003160497044B02100316A9
:100D20000497040B02E4027003DC049704550416D4
:100D300004970455041604DC0355041604DC03A4CC
:100D4000031604DC03A4037003DC03A40370033F55
:100D500003E402BA0293022006100316042605DCFF
:100D6000041003B807DC03E00616042605E006209D
:100D700006160497042605E00616047505E0067DB0
:100D80000616049704750526051003160426059714
:100D9000047003DC0397042006100316042605DC08
:100DA000041003B807DC03E00616042605E006205D
:100DB00006160497042605E00616047505E0067D70
:100DC00006160497047505260510031604260597D4
:100DD000047003DC03970497042D082E09AA080069
:100DE000002D080000B8070000000000000000DC33
:100DF000036F0F0000A40316049704DC04750504B8
:100E00000408101010100208081010100210101022
:100E10000810020408101002080808101002080840
:100E2000081010020408101008101008101008080C
:100E30000404081010101002080810101002040416
:100E40000204020404020402040402040204040270
:100E500004041002040810100810100810100808EC
:100E60001010101010101010101010101010101082
:100E70001010101010101010101010101010101072
:100E80001010101010101010101010101010101062
:100E90001010101010101010101010101010101052
:100EA0001010101010101010101010101010101042
:100EB0001010101010101010101010101010101032
:100EC0001010101010101010101010101010101022
:100ED0001010101010101010100204040404040468
:100EE00004040404040404040404040404040404C2
:100EF00004040404040404040404040404040404B2
:100F000004040404040404040404040404040404A1
:100F1000040404040404040404040404040880080D
:100F200080010101010104040410101010020000EE
:100F30006100C400DB001B0127012A012F017D0095
:100F40005000B400BE009600FA00C8000000000087
:100F5000003E5B4F5B3E3E6B4F6B3E1C3E7C3E1C3F
:100F6000183C7E3C181C577D571C1C5E7F5E1C0085
:100F7000183C1800FFE7C3E7FF0018241800FFE73C
:100F8000DBE7FF30483A060E2629792926407F05FF
:100F90000507407F05253F5A3CE73C5A7F3E1C1C15
:100FA00008081C1C3E7F14227F22145F5F005F5FD5
:100FB00006097F017F006689956A606060606094C1
:100FC000A2FFA29408047E040810207E20100808C6
:100FD0002A1C08081C2A08081E101010100C1E0CD1
:100FE0001E0C30383E3830060E3E0E060000000063
:100FF0000000005F00000007000700147F147F144A
:10100000242A7F2A1223130864623649562050008E
:1010100008070300001C2241000041221C002A1C7A
:101020007F1C2A08083E0808008070300008080865
:101030000808000060600020100804023E51494585
:101040003E00427F400072494949462141494D33A3
:101050001814127F1027454545393C4A494931410A
:10106000211109073649494936464949291E0000D8
:10107000140000004034000000081422411414142D
:101080001414004122140802015909063E415D5919
:101090004E7C1211127C7F494949363E4141412222
:1010A0007F4141413E7F494949417F090909013E4C
:1010B000414151737F0808087F00417F4100204073
:1010C000413F017F081422417F404040407F021C85
:1010D000027F7F0408107F3E4141413E7F0909099C
:1010E000063E4151215E7F09192946264949493268
:1010F00003017F01033F4040403F1F2040201F3F2E
:101100004038403F631408146303047804036159B2
:10111000494D43007F4141410204081020004141F4
:10112000417F0402010204404040404000030708A0
:101130000020545478407F2844443838444444289C
:10114000384444287F385454541800087E09021843
:10115000A4A49C787F0804047800447D40002040CB
:10116000403D007F1028440000417F40007C04780F
:1011700004787C080404783844444438FC18242457
:101180001818242418FC7C080404084854545424D7
:1011900004043F44243C4040207C1C2040201C3C54
:1011A0004030403C44281028444C9090907C44644B
:1011B000544C4400083641000000770000004136DE
:1011C000080002010204023C2623263C1EA1A16164
:1011D000123A4040207A3854545559215555794196
:1011E0002154547841215554784020545579400C6D
:1011F0001E5272123955555559395454545939554E
:101200005454580000457C410002457D4200014590
:101210007C40F0292429F0F0282528F07C545545FD
:10122000002054547C547C0A097F49324949493290
:101230003248484832324A4848303A4141217A3AA5
:1012400042402078009DA0A07D39444444393D406F
:1012500040403D3C24FF2424487E4943662B2FFC1C
:101260002F2BFF0929F620C0887E090320545479CA
:10127000410000447D413048484A32384040227A9B
:10128000007A0A0A727D0D19317D2629292F282618
:101290002929292630484D40203808080808080820
:1012A0000808382F10C8ACBA2F102834FA00007B79
:1012B000000008142A142222142A1408950022007F
:1012C00095AA005500AAAA55AA55AA000000FF0039
:1012D000101010FF00141414FF001010FF00FF1076
:1012E00010F010F0141414FC001414F700FF0000A8
:1012F000FF00FF1414F404FC141417101F10101F27
:10130000101F1414141F00101010F0000000001F14
:10131000101010101F10101010F010000000FF101F
:101320001010101010101010FF10000000FF14001B
:1013300000FF00FF00001F10170000FC04F414144D
:101340001710171414F404F40000FF00F714141419
:1013500014141414F700F7141414171410101F1099
:101360001F141414F4141010F010F000001F101FBC
:101370000000001F14000000FC140000F010F0102A
:1013800010FF10FF141414FF141010101F000000A1
:1013900000F010FFFFFFFFFFF0F0F0F0F0FFFFFFA5
:1013A0000000000000FFFF0F0F0F0F0F38444438FC
:1013B000447C2A2A3E147E02020606027E027E0237
:1013C00063554941633844443C04407E201E200656
:1013D000027E020299A5E7A5991C2A492A1C4C7293
:1013E00001724C304A4D4D303048784830BC625A1A
:1013F000463D3E494949007E0101017E2A2A2A2AAA
:101400002A44445F444440514A444040444A514085
:101410000000FF0103E080FF000008086B6B083646
:1014200012362436060F090F0600001818000000B7
:101430001010003040FF0101001F01011E00191DA6
:101440001712003C3C3C3C00000000000601150166
:10145000260137014A015D01720188019F01B8012F
:10146000D201EE010B022A024B026E029302BA0273
:10147000E40210033F037003A403DC0317045504C4
:101480009704DD0427057505C80520067D06E006DE
:101490004907B8072D08A9082D09B9094D0AEA0A14
:1014A000900B400CFA0CC00D910E6F0F5A10531197
:1014B0005B1272139A14D41520178018F519801B2B
:1014C000231DDE1EB420A622B524E4263429A72B32
:1014D000402E0031EA330037453ABC3D68414C4567
:1014E0006B49C84D68524F57805C0062101112134F
:1014F000151617181A1C1D1F21232527292C2E31DC
:1015000034373A3E4145494E52575C62686E757BAE
:10151000838B939CA5AFB9C4D0DCE9F7000000022F
:1015200000090F0000030401000C0000000000008F
:101530000000000000000000000000080B00020294
:10154000020100090400000102020000052400104D
:1015500001052401010104240206052406000107F7
:1015600005810310004009040100020A0000000781
:101570000502024000000705830240000004030941
:101580000412010002EF02014041233680000101F4
:1015900002030141726475696E6F204C4C43004137
:1015A000726475626F790004080201104080401077
:1015B0002040804080080204018040201002011079
:1015C00080102040402000000000250028002B0053
:1015D0002E00310004040404040304050202020284
:1015E00004030202020206060606060604040202BC
:1015F00002040403010808000000000000000018B5
:101600002C1E564C122400BFCFC0DF9F6678030209
:1016100001233220240400007676006E606E000004
:1016200006425A4A7A4A0608B254707576B20800E1
:101630000F2411241FBECFEFDAE0DEBFCDBF11E0D3
:10164000A0E0B1E0E2E9FAE402C005900D92AC340A
:10165000B107D9F726E0ACE4B1E001C01D92A13397
:10166000B207E1F71BE0C9E1DBE004C02197FE010E
:101670000E942125C831D107C9F70E94601B0C9434
:1016800047250C940000CF92DF92EF92FF920F93C8
:101690001F93CF93DF936C017A018B01C0E0D0E000
:1016A000CE15DF0589F0D8016D918D01D601ED9140
:1016B000FC910190F081E02DC6010995892B11F470
:1016C0007E0102C02196ECCFC701DF91CF911F911F
:1016D0000F91FF90EF90DF90CF900895089580E0F4
:1016E00090E008950E944225362F90E0FC01E45ED0
:1016F000FA4E4491FC01E955FA4E2491FC01EC525A
:10170000FA4E8491882309F451C04423E1F150E05A
:10171000FA013197EF30F105B0F5EA5AFF4F0C941A
:101720002125909180009F7707C0909180009F7D38
:1017300003C090918000977F9093800024C094B55F
:101740009F7702C094B59F7D94BD1DC0909190007D
:101750009F7707C0909190009F7D03C0909190006B
:10176000977F909390000FC09091C0009F7703C027
:101770009091C0009F7D9093C00005C09091C200E1
:10178000977F9093C200E82FF0E0EE0FFF1FEA531F
:10179000FA4EA591B4918FB7F894EC91311103C032
:1017A00020952E2301C02E2B2C938FBF0895CF930D
:1017B000DF9390E0FC01E955FA4E2491FC01EC52D4
:1017C000FA4E8491882361F190E0880F991FFC0103
:1017D000E856FE4FC591D491FC01EA53FA4EA5910B
:1017E000B491611109C09FB7F89488812095822334
:1017F0008883EC912E230BC0623061F49FB7F8947C
:101800003881822F809583238883EC912E2B2C9313
:101810009FBF06C08FB7F894E8812E2B28838FBF17
:10182000DF91CF9108951F93CF93DF93182FEB0192
:1018300061E00E94D70B209711F460E004C0CF3F15
:10184000D10539F461E0812FDF91CF911F910C9484
:10185000740BE12FF0E0E45EFA4EE4914E2F50E07D
:10186000FA013197EF30F10508F06CC0EB59FF4FEA
:101870000C94212584B5806884BDC7BD68C084B53B
:10188000806284BDC8BD63C0809180008068809301
:101890008000D0938900C093880059C08091800057
:1018A000806280938000D0938B00C0938A004FC0E9
:1018B00080918000886080938000D0938D00C093D9
:1018C0008C0045C080919000806880939000D093F8
:1018D0009900C09398003BC08091900080628093F3
:1018E0009000D0939B00C0939A0031C080919000EB
:1018F000886080939000D0939D00C0939C0027C087
:101900008091C00080688093C0008091C0008F7B70
:101910008093C000C093CF001AC08091C000806245
:101920008093C000C093D00012C08091C200886034
:101930008093C2008091C2008B7F8093C200C093CD
:10194000D20005C0C038D1050CF07CCF76CFDF9136
:10195000CF911F9108953FB7F8948091A201909183
:10196000A301A091A401B091A50126B5A89B05C033
:101970002F3F19F00196A11DB11D3FBFBA2FA92F0E
:10198000982F8827820F911DA11DB11DBC01CD018B
:1019900042E0660F771F881F991F4A95D1F7089577
:1019A0008F929F92AF92BF92CF92DF92EF92FF926F
:1019B0006B017C010E94AB0C4B015C01C114D10492
:1019C000E104F104F1F00E94AB0CDC01CB018819B9
:1019D0009909AA09BB09883E9340A105B10570F396
:1019E00021E0C21AD108E108F10888EE880E83E0F0
:1019F000981EA11CB11CC114D104E104F10419F713
:101A0000DDCFFF90EF90DF90CF90BF90AF909F9091
:101A10008F9008952FB7F89460919E0170919F0167
:101A20008091A0019091A1012FBF08951F920F9264
:101A30000FB60F9211242F933F938F939F93AF93E1
:101A4000BF9380919E0190919F01A091A001B091C0
:101A5000A10130919D0123E0230F2D3720F4019641
:101A6000A11DB11D05C026E8230F0296A11DB11DC1
:101A700020939D0180939E0190939F01A093A001CC
:101A8000B093A1018091A2019091A301A091A40122
:101A9000B091A5010196A11DB11D8093A201909363
:101AA000A301A093A401B093A501BF91AF919F9111
:101AB0008F913F912F910F900FBE0F901F9018950F
:101AC0008FB12CB193B130E020953095207433273D
:101AD000A90123E0559547952A95E1F7292F30E094
:101AE0002095309520713327359527953595279585
:101AF000242B8095807F822B089580E094E01EBC8B
:101B000000000DB407FEFDCF2EB50197C1F7089573
:101B1000FC0121912EBD9C5F21910DB407FEFDCFEC
:101B20002EBDE817F907C1F70DB407FEFDCF0895E4
:101B3000CF92DF92EF92FF920F931F93CF93E82FF4
:101B4000F0E0ED50FA4EC491E62FF0E0603330F44F
:101B5000E451FB4EE4910E2F10E006C0EE0FFF1F84
:101B6000E451FC4E059114916801E12CF12C60E0E8
:101B700074E284EF90E0A70196010E94AA24BA01C2
:101B8000A90141505109610971094115510581E0CF
:101B90006807710580F060E970ED83E090E0A701CF
:101BA00096010E94AA24BA01A90141505109610974
:101BB000710983E001C081E0C130C9F0C33031F563
:101BC00090919100987F892B809391005093990078
:101BD0004093980010939C0100939B0181E08093B7
:101BE0009A01809171008260809371000FC0909182
:101BF0008100987F892B80938100509389004093C6
:101C0000880080916F00826080936F00CF911F9158
:101C10000F91FF90EF90DF90CF9008951F920F9259
:101C20000FB60F9211242F933F938F939F93AF93EF
:101C3000BF93EF93FF9380919201882309F44DC0E5
:101C400080918E0190918F01A0919001B0919101AE
:101C5000892B8A2B8B2B51F18091AE01E091AF0142
:101C6000F091B00190818927808380918E019091BD
:101C70008F01A0919001B0919101181619061A06D2
:101C80001B06A4F580918E0190918F01A091900187
:101C9000B09191010197A109B10980938E019093B0
:101CA0008F01A0939001B093910120C010929201F6
:101CB00080916F008D7F80936F009091AE01E091D5
:101CC000AF01F091B0018081282F30E0892F90E0A2
:101CD000809590958223932308C08091AE01E09176
:101CE000AF01F091B001908189278083FF91EF913E
:101CF000BF91AF919F918F913F912F910F900FBE08
:101D00000F901F901895E82FF0E0ED50FA4EE491F7
:101D1000E13019F0E33069F0089580916F008D7F14
:101D200080936F009091AE01E091AF01F091B0010E
:101D300008C010929A019091AB01E091AC01F09132
:101D4000AD018081282F30E0892F90E0809590951B
:101D500082239323808308951F920F920FB60F92D0
:101D600011242F933F934F935F936F937F938F93A0
:101D70009F93AF93BF93EF93FF9380919A01882332
:101D800049F08091AB01E091AC01F091AD019081FF
:101D90008927808380919901882309F493C08091D9
:101DA000950190919601A0919701B0919801892B8E
:101DB0008A2B8B2B09F486C0809195019091960116
:101DC000A0919701B09198010197A109B109809361
:101DD000950190939601A0939701B0939801892B58
:101DE0008A2B8B2B09F06EC0E0919301F091940146
:101DF000BF016F5F7F4F7093940160939301449193
:101E0000942F907F842F8F70903819F40E94830E46
:101E1000EBCF903981F43296F0939401E0939301E3
:101E2000FB0164919091B1018917F0F667FDDCCF59
:101E30000E94980DD9CF903E29F4109294011092EF
:101E40009301D2CF903F19F4109299013BC097FDB6
:101E5000CBCF3296F0939401E0939301FB01249150
:101E600030E0342BA0919B01B0919C010E94FE2494
:101E70006C507E4F8F4F9F4F28EE33E040E050E094
:101E80000E94DC24209395013093960140939701A2
:101E9000509398018091950190919601A09197019E
:101EA000B0919801892B8A2B8B2B61F481E090E013
:101EB000A0E0B0E08093950190939601A0939701E4
:101EC000B0939801FF91EF91BF91AF919F918F9146
:101ED0007F916F915F914F913F912F910F900FBE26
:101EE0000F901F9018951092990182E090E00E9447
:101EF000A224882369F080916400877F8093640026
:101F000080916500877F8093650081E080934C011C
:101F10000895A42FA695A695A695B0E077274770BB
:101F20005527B695BA2FAA27B795A7956A0F7B1F95
:101F3000FC01E60FF71F81E090E001C0880F4A9591
:101F4000EAF7222319F09489892B03C0809594899C
:101F50008923848B08952F923F924F925F926F92C4
:101F60007F928F929F92AF92BF92CF92DF92EF9229
:101F7000FF920F931F93CF93DF93CDB7DEB72A97CE
:101F80000FB6F894DEBF0FBECDBF6A3091F4FC01EE
:101F9000E85EFB4F408132972081318158E0459FB8
:101FA000200D311D1124318320833297118210823C
:101FB000CAC06D3009F4C7C09A878987885E9B4F75
:101FC0009C838B83DC012C90E985FA85EA5EFB4FCC
:101FD00060807180E985FA85EC5EFB4FFA83E983C6
:101FE0000081118100381105D4F0AB81BC812C91A6
:101FF000422F50E0E981FA8180819181F6E02F9FA4
:10200000800D911D1124A981BA818D939C93E9853E
:10201000FA85E75EFB4F2081211167C094C0B0E4D0
:102020006B16710414F7C801E5E02E9E800D911D1A
:10203000112418161906CCF6422C512CC301F8E0D5
:102040002F9E800D911D11241816190674F655E067
:10205000659F900111243F832E83E12CF12C85E0B4
:10206000E816F10441F0EE81FF81EE0DFF1DE45B07
:10207000F04F349001C0312C430138E0932D917022
:102080009D8358018A2D801B8215F0F464018C2DEC
:1020900088198215A8F4A0E8AA16B10468F4B0E47F
:1020A000CB16D10448F42D81A601B50189859A8506
:1020B00038870E94890F3885EFEFCE1ADE0AE7CF06
:1020C000FFEFAF1ABF0ADECF36943150840C951C57
:1020D0003111D4CF2FEFE21AF20A040D151D36E0AC
:1020E000E316F10409F0BBCF80CF6AEF64039001DF
:1020F000659F300D112420583F4F281739071CF5D4
:10210000A985BA85ED91FC9111970190F081E02DA0
:102110006AE0CD012A960FB6F894DEBF0FBECDBFA0
:10212000DF91CF911F910F91FF90EF90DF90CF90B3
:10213000BF90AF909F908F907F906F905F904F90E7
:102140003F902F9009942A960FB6F894DEBF0FBEE9
:10215000CDBFDF91CF911F910F91FF90EF90DF9056
:10216000CF90BF90AF909F908F907F906F905F9037
:102170004F903F902F9008951F93CF93DF93182F88
:10218000C82FCC0FDD0BFE01E25CF04F259134919E
:1021900040E050E060E67AEE80E090E00E94AA2401
:1021A000220F331F220F331F30938D0120938C0198
:1021B000FE01E05DF04F25913491215031093093BB
:1021C000890120938801FE01E25DF04F8591949191
:1021D000909385018093840110924D0110938001AA
:1021E000DF91CF911F91089520918C0130918D0145
:1021F00030938B0120938A012091880130918901CD
:1022000030938701209386012091840130918501CC
:10221000309383012093820190914D01909381012D
:102220009091800190937F010E94BC1083E0809385
:102230004D0108954F925F926F927F928F929F927D
:10224000AF92BF92CF92DF92EF92FF920F931F93C4
:10225000CF93DF9380914D01813009F4E1C01CF4EC
:10226000882321F0F1C084300CF0EEC00E940A0DEA
:1022700000917B0110917C0120917D0130917E01C4
:10228000601771078207930708F4DEC0209184016C
:102290003091850180918801909189012817390733
:1022A00071F580914D01823031F0833041F0811120
:1022B00026C081E001C084E080934D0120C0809160
:1022C0008A0190918B0190938D0180938C01809174
:1022D0008601909187019093890180938801809174
:1022E0008201909183019093850180938401809174
:1022F000810180934D0180917F0180938001C09185
:102300008401D0918501FE01E150F24F649170E0AB
:1023100080918C0190918D010E940D258B010E946E
:102320000A0D6801012E000CEE08FF08DC01CB014C
:102330000C96A11DB11D8C0D9D1DAE1DBF1D809362
:102340007B0190937C01A0937D01B0937E01FE01FF
:10235000EE0FFF1FEF55F44FC591D49181E08093AC
:1023600092012E01612C712C60E072E18AE790E00D
:10237000A30192010E94AA2449015A0181E0881A0E
:102380009108A108B1088114910481E0A806B10464
:1023900088F068E478EE81E090E0A30192010E9469
:1023A000AA2449015A0181E0881A9108A108B108BC
:1023B00093E001C091E080918100887F892B809318
:1023C0008100CD28CE28CF2869F09E01220F331F2F
:1023D000D8010E94272528EE33E040E050E00E941B
:1023E000DC2403C02FEF3FEFA90190928900809277
:1023F000880020938E0130938F0140939001509379
:10240000910180916F00826080936F0080918401C0
:10241000909185010196909385018093840114C069
:1024200080918001DF91CF911F910F91FF90EF90EC
:10243000DF90CF90BF90AF909F908F907F906F90E4
:102440005F904F900C94BC10DF91CF911F910F9132
:10245000FF90EF90DF90CF90BF90AF909F908F90C4
:102460007F906F905F904F900895CF92DF92EF92A0
:10247000FF920F931F93CF93DF93CDB7DEB72797CC
:102480000FB6F894DEBF0FBECDBF3A83842F90E025
:10249000002E000C110B8017910734F09801285F73
:1024A0003F4F281739074CF49C01285F3F4F2017F6
:1024B0003107E4F108171907CCF12A81852F90E044
:1024C0000E2C000CFF082233C8F40C2C000CDD0885
:1024D0008E159F0534F097012C0D3D1D28173907E7
:1024E0001CF59C012C0D3D1D2E153F05FCF0EC0C40
:1024F000FD1C81E0E216F306D4F418C08E159F058A
:1025000034F09701285F3F4F281739076CF49C017E
:10251000205F3F4F2E153F054CF02950310981E0D7
:102520002E153F0524F002C081E001C080E027960F
:102530000FB6F894DEBF0FBECDBFDF91CF911F91D4
:102540000F91FF90EF90DF90CF9008958F929F9220
:10255000AF92BF92CF92DF92EF92FF920F931F93B1
:10256000CF93460250011124659FC02D11248F3F47
:1025700011F480914E012CE0820280011124812C03
:10258000912C6501E12CF12C80E6C816D104B0F441
:10259000F701E00FF11FE550FC4FE491C40128E082
:1025A000E202800D911D1124FC01ED51FD4F24919B
:1025B00045EF55E16C2F8C2D0E940D188FEFE81A16
:1025C000F80A98E0C90ED11C2CE0E216F104E1F6FD
:1025D0008FEF881A980AC85F98E08916910489F6E7
:1025E000CF911F910F91FF90EF90DF90CF90BF9010
:1025F000AF909F908F9008951F93CF93DF93E82F14
:1026000080934E018CE1A0E5B1E0ED0119928A952D
:10261000E9F782E38093510181E080935501809333
:102620004F010E2E000CFF0BEF5DF44F849190E0F4
:102630008F3F910559F440E050E060E08FEF0E9439
:10264000A612DF91CF911F910C94B117880F991F9B
:10265000880F991F835A954F21E0C5E0D1E0CD5FE7
:1026600017E0D1E0FC014491E5E0F1E0042E000C1C
:10267000550B6191633320F070E06417750709F121
:10268000CE13F7CFFC013296349131974491FC017F
:1026900054912103D0011124A05BBE4F2C931196BD
:1026A0005C93119712964C93129713963C93139741
:1026B0001596DC9315971496DC93149716961C9236
:1026C0002F5FFC013396E4910496EF3F19F024301C
:1026D0000CF4C8CF20934F01AECF4F925F926F9210
:1026E0007F928F929F92AF92BF92CF92DF92EF92A2
:1026F000FF920F931F93CF93DF93813079F034F4DF
:10270000811113C0C0914E01C8500FC0823051F0EA
:10271000833059F4C0914E01CF5F07C0C0914E0184
:10272000C85F03C0C0914E01C150C13808F06EC0EF
:10273000A0904E01B090000100910101D0900201E3
:10274000F0900301E82F880FFF0BCF01880F991F2E
:10275000E80FF91FE65FFE4F70808180811004C092
:1027600087E020EAC22E03C086E090ECC92E879D48
:10277000602C1124889D902C1124F90CD60CDC2D92
:1027800010E0E12C88E0482E4F0CD85F6D2F6C19BB
:10279000472D582D8A2D0E94A612472D582D6D2F9A
:1027A0008C2F0E94A612013011F001E001C002E05E
:1027B0005E2C5D0C612F6F0D2B2D4BEF59E0852D9D
:1027C0000E940D18642D610F202F2B0D4BEF59E047
:1027D000852D0E940D180E94B1170E941A11E60C57
:1027E000190DD111D2CF8C2FDF91CF911F910F9165
:1027F000FF90EF90DF90CF90BF90AF909F908F9021
:102800007F906F905F904F900C94FC12DF91CF916E
:102810001F910F91FF90EF90DF90CF90BF90AF90FE
:102820009F908F907F906F905F904F90089587FD5D
:10283000895F8595859585958C3014F5E62F67FD24
:10284000E95F6E2F6595659565956830CCF4E091EC
:102850004E019CE0E902F0011124E80FF11D87FD13
:10286000FA95E550FC4F8491E62F660FFF0B98E038
:102870008902E00DF11D1124ED51FD4F8491089561
:1028800080E00895BF92CF92DF92EF92FF920F9374
:102890001F93CF93DF93C82FD0E2E82E880FFF0855
:1028A00083E0E80EF11C82E0B82E92E8C92E92E097
:1028B000D92E8C2F0C2E000C990BE816F90604F17A
:1028C000B0927901F6014491CC2331F04C9F800104
:1028D00011240D571D4F02C003E812E0842F8D0F05
:1028E00080937A0128E060E10E94B8178091B201DC
:1028F0009091B30144960E94880DD85FCF5FD9CFE5
:10290000DF91CF911F910F91FF90EF90DF90CF90CB
:10291000BF900895CF93DF93CDB7DEB72E970FB654
:10292000F894DEBF0FBECDBF288739874A87652F51
:102930005B877D878E87842F0E9434181C8687E0F2
:10294000FE013896DE01119601900D928A95E1F70D
:1029500029813A814B815C816D817E818F8190E0FC
:102960002E960FB6F894DEBF0FBECDBFDF91CF918C
:102970000895CF93C82F60910301809102010E94B6
:10298000341860910301685F809102010E9434183D
:1029900080910001C81721F081E08093010107C0F8
:1029A000809101018F5F809301018330A8F7C0936C
:1029B0000001C33061F118F4CC2341F0A0C0C6304F
:1029C00009F447C0C93009F46EC099C06091030191
:1029D0006033A8F4605F809102010E941714811196
:1029E0008EC060910301605F809102018C5F0E9444
:1029F0001714811184C0809103018C5F20C081E095
:102A00000E946D13109203011092000178C0609132
:102A100003016530B8F06450809102010E941714E0
:102A200081116DC0609103016450809102018C5F3F
:102A30000E941714811163C0809103018450809318
:102A400003015DC080E00E946D1380E38093030169
:102A500054C0809102018530F8F0609103018850E4
:102A60000E94171481114BC060910301685F80912F
:102A7000020188500E941714811141C06091030126
:102A8000645F8091020188500E941714811137C041
:102A900080910201845029C082E00E946D1388E574
:102AA000809302012AC080910201843508F560916B
:102AB0000301885F0E941714811121C060910301F6
:102AC000685F80910201885F0E941714811117C00E
:102AD00060910301645F80910201885F0E94171476
:102AE00081110DC0809102018C5F8093020107C0AB
:102AF00083E00E946D1310920201C09300012091A7
:102B000000014BEF59E060910301809102010E94A6
:102B10000D182091010180910001280F609103019F
:102B2000685F4BEF59E080910201CF910C940D1832
:102B3000FC018091AA01811103C08FEF9FEF0895DE
:102B40009FB7F89482E08093E9002091F20030E092
:102B50001216130614F421E030E02115310559F066
:102B6000289884E68093A9018091F1008083809168
:102B7000F200882319F09FBFC90108958BE6809366
:102B8000E800F9CF2FB7F89483E08093E9009091A3
:102B9000E800892F807295FF04C09091F20080E4D4
:102BA000891B2FBF08958091D70581110DC082E048
:102BB0008093D30584E08093D4051092D6051092BB
:102BC000D50581E08093D70583ED95E00895CF93F7
:102BD000DF931F92CDB7DEB76983DC01ED91FC91E5
:102BE0000280F381E02D41E050E0BE016F5F7F4F36
:102BF00009950F90DF91CF91089583E08093E900CC
:102C00008091F200882319F08AE38093E800089508
:102C10000E94C21590E00895CF93DF931F92CDB725
:102C2000DEB7FC018485958597FD05C02FEF3FEF4A
:102C3000358724870BC0CE0101960E949815019715
:102C400019F4898190E002C08FEF9FEF0F90DF9120
:102C5000CF9108950F931F93CF93DF931F92CDB71A
:102C6000DEB78C01FC018485958597FF0EC0CE01EF
:102C700001960E949815019719F4298130E002C04D
:102C80002FEF3FEFF80135872487F801848595857C
:102C90000F90DF91CF911F910F910895FC018485D2
:102CA000958597FD0BC09FB7F89482E08093E9006B
:102CB0008091F2009FBF90E0019608959FB7F8942D
:102CC00082E08093E9008091F2009FBF90E0089538
:102CD0004091D0055091D1052091CE053091CF057E
:102CE00042175307B4F49091E8009570E1F3909186
:102CF000E80092FD19C08093F1008091D005909179
:102D0000D10501968F739927892B19F48EEF809343
:102D1000E8008091D0059091D10501969093D1055E
:102D20008093D00581E0089580E00895CF92DF92EE
:102D3000EF92FF920F931F93CF93DF931F92CDB724
:102D4000DEB7182F062FE42E862F880F8E5F99830B
:102D50000E94681683E00E946816F12EC12E9981A8
:102D6000D92E8C2D8F19801798F4F601E7FE02C03A
:102D7000849101C080810E946816182F80E00E9413
:102D800068168123FFEFCF1ADF0A8111EACF01C055
:102D900081E00F90DF91CF911F910F91FF90EF9005
:102DA000DF90CF900895DF92EF92FF920F931F93E1
:102DB000CF93DF93D82E8A017B01E40EF51EEB0141
:102DC000CE15DF0571F0D7FE03C0FE01849101C06E
:102DD00088810E94681621968111F2CF8FEF9FEFB4
:102DE00001C0C801DF91CF911F910F91FF90EF902B
:102DF000DF9008950F931F93CF93DF931F92CDB76A
:102E0000DEB782E0898342E450E06BE375E180E85D
:102E10000E94D3160E94D315DC0112960D911C91CD
:102E200013970115110569F0D801ED91FC9102800D
:102E3000F381E02DBE016F5F7F4FC801099597FFB9
:102E400007C089810F90DF91CF911F910F91089555
:102E5000F80100851185E5CF8F929F92AF92BF92C6
:102E6000CF92DF92EF92FF920F931F93CF93DF9356
:102E70005C016B017A0180912101882309F45BC018
:102E80008091AA01882309F456C08091A80180FF8F
:102E900005C08091E00082608093E000E70110E0CF
:102EA0000AEF83E0882E9AE3992E2097D9F10E94A9
:102EB000C21581110AC0015009F43DC061E070E003
:102EC00080E090E00E94D00CF0CF282F30E0C217B5
:102ED000D3070CF48C2F4FB7F8948092E9009091AF
:102EE000E80095FF1DC0282F30E0C21BD30BF60170
:102EF000982F915020F081918093F100FACFC20E6B
:102F0000D31E112319F09092E80009C08091E800C7
:102F100085FD06C09092E80011E0209709F010E0CE
:102F20004FBFC3CF1111C3CF5D9884E68093D20504
:102F30001E141F0444F081E090E0F5019383828326
:102F400080E090E001C0C701DF91CF911F910F9108
:102F5000FF90EF90DF90CF90BF90AF909F908F90B9
:102F600008958091B2019091B30144960C94880D1C
:102F70005F926F927F928F929F92AF92BF92CF9209
:102F8000DF92FF920F931F93CF93DF93542EC22EA5
:102F90005801F801D490603488F587FD2FC010E007
:102FA00000E0C82FD0E0862E912C151539F1FC2CAD
:102FB0003E01610E711CFF20F9F0083031F4FFEF83
:102FC000AF1ABF0AF501D49000E08091B201909150
:102FD000B301F0E86F1671045CF4A4014F0D511DAC
:102FE000403451052CF42D2D2078B3010E94890F17
:102FF0000F5FDD0CFA94DFCF1F5FD7CFDF91CF914A
:103000001F910F91FF90DF90CF90BF90AF909F9056
:103010008F907F906F905F9008950F931F93FA01A8
:103020004491319694912223B1F0949FD0011124C0
:103030008D0107701127012B11F0A87F189633E03E
:10304000B695A7953A95E1F72A9F80012B9F100D21
:103050001124E00FF11F8F010F5F1F4F292F0E94D6
:10306000B8171F910F91089520E045EF55E10C949A
:103070000D18CF93DF939091B101923009F46EC097
:10308000C82F292F30E0F901ED50FA4ED491F90103
:10309000E152FA4F80839F5F9093B10161E00E94FB
:1030A000D70BD13019F0D33039F158C010928000CD
:1030B00010928100809181008860809381008091CE
:1030C00081008160809381008C2F90E0FC01EC52A4
:1030D000FA4EE491F0E0EE0FFF1FEA53FA4E25910D
:1030E00034913093B0012093AF01FC01E955FA4EC1
:1030F00084918093AE0132C01092900010929100A2
:10310000809191008860809391008091910081600E
:10311000809391008C2F90E0FC01EC52FA4EE491E8
:10312000F0E0EE0FFF1FEA53FA4E259134913093F1
:10313000AD012093AC01FC01E955FA4E84918093D6
:10314000AB018091B101882321F06CE380E00E9403
:10315000980D80E0DF91CF910C94830EDF91CF9199
:1031600008951F920F920FB60F9211248F939F9381
:103170008091E1009091E100937F9093E10083FFC3
:103180000FC01092E90091E09093EB001092EC00D8
:1031900092E39093ED001092AA0198E09093F000D2
:1031A00082FF20C093E09093E9009091F200992370
:1031B00019F09AE39093E8009091D205992339F0A1
:1031C0009091D20591509093D205992389F19091D5
:1031D000A901992339F09091A90191509093A901E7
:1031E000992341F184FF10C08091E2008E7E8160BE
:1031F0008093E2008091E1008F7E8093E1008091D6
:10320000A8018E7E806111C080FF16C08091E2000F
:103210008E7E80618093E2008091E1008E7E8093BB
:10322000E1008091A8018E7E81608093A80104C096
:103230005D9ACDCF289AD6CF9F918F910F900FBED8
:103240000F901F9018951F920F920FB60F92112496
:10325000CF92DF92EF92FF920F931F932F933F93A2
:103260004F935F936F937F938F939F93AF93BF938E
:10327000EF93FF93CF93DF93CDB7DEB76C97DEBFAD
:10328000CDBF1092E9008091E80083FFEDC168E0B6
:10329000CE0145960E94531B82EF8093E8008D89F2
:1032A00087FF05C09091E80090FFFCCF03C09EEF20
:1032B0009093E800982F907609F0C6C09E892F89D8
:1032C000188D91110CC0803829F48091A70180934A
:1032D000F10002C01092F1001092F10048C1422F9B
:1032E00050E0512B913051F4811141C141305105D1
:1032F00009F03DC18091A7018D7F0BC0933061F42F
:10330000811135C14130510509F031C18091A701CA
:1033100082608093A7012BC1953041F48091E80031
:1033200080FFFCCF20682093E30021C1963009F094
:103330005FC0EB8CFC8C1092E9001092D1051092CA
:10334000D005123091F51092CF051092CE050E9453
:10335000FA1699E0BE016F5F7F4FDB01E92F1D92E6
:10336000EA95E9F799831A8391E09E8390EA98871A
:103370009AEF99872091D0053091D105275F3F4F73
:103380003C832B838D831092E9001092D10510921B
:10339000D005F092CF05E092CE0549E050E080E004
:1033A0000E94D3160E94FA16E2C0F092CF05E09276
:1033B000CE050E94D315DC011296ED90FC90139778
:1033C000E114F10409F4C0C0D701ED91FC9104802F
:1033D000F581E02DBE016B5E7F4FC7010995009717
:1033E00019F00CF0C4C0C7C0F701E084F184E8CF45
:1033F000973009F4C0C0983021F481E08093F10047
:10340000B6C0993009F0B3C0837009F0B4C0E7E2E8
:10341000F1E081E021E036E39081992361F080932F
:10342000E9002093EB0091919093EC003093ED0034
:103430008F5F873089F78EE78093EA001092EA0069
:103440008F898093AA0193C08B8D9C8D1092E90087
:103450001092D1051092D0059093CF058093CE05A0
:10346000898D811156C08E899D89913A59F4813296
:1034700009F081C047E050E06AE171E080E00E941D
:10348000D31675C0913209F076C0833289F4888DE5
:1034900090E0982F88272F89822BA0E0B0E08093BE
:1034A000160190931701A0931801B09319015FC002
:1034B000803269F48091E80082FFFCCF67E08AE106
:1034C00091E00E94531B8BEF8093E80006C082328C
:1034D00009F04DC08F89809321018091A601882336
:1034E00019F0EEEFFAE002C0E0E0F8E080911A0196
:1034F00090911B01A0911C01B0911D01803B944053
:10350000A105B10509F07BC08091210180FF93C026
:1035100076C00E94D315DC0112960D911C91139771
:103520000115110541F1D801ED91FC910190F08157
:10353000E02DBE016B5E7F4FC8010995811117C058
:10354000F80100851185ECCF113009F44EC013301D
:1035500091F48F89882309F445C0823081F440E8D2
:1035600067E08FE995E10E949616882321F08EEF9F
:103570008093E80079C081E28093EB0075C08130D0
:1035800029F440E86BE083E995E1EDCF833099F7CA
:103590000E94D315DC011296ED90FC9013978E01DA
:1035A0000F5F1F4F6801E114F10479F0D701ED912D
:1035B000FC910680F781E02DB801C7010995080F3D
:1035C000111DF701E084F184EECFD8011C92F601C1
:1035D00001900020E9F73197BF016C197D0940E0A7
:1035E000C601C1CF6DE775E102C061E875E1611503
:1035F000710509F2FB01449150E080E840CF0FB61D
:10360000F894A89580916000886180936000109282
:1036100060000FBEA895EE3F2AE0F20739F08091D6
:10362000FE0A9091FF0A91838083A1CF1092FF0A36
:103630001092FE0A9CCFEE3F8AE0F80731F08081BD
:1036400091819093FF0A8093FE0A87E797E7918321
:1036500080839BE088E10FB6F894A8958093600082
:103660000FBE9093600083CF6C960FB6F894DEBFC8
:103670000FBECDBFDF91CF91FF91EF91BF91AF9181
:103680009F918F917F916F915F914F913F912F917A
:103690001F910F91FF90EF90DF90CF900F900FBE92
:1036A0000F901F901895615030F02091F100FC01AF
:1036B00020830196F8CF289884E68093A901089585
:1036C000CF93DF93CDB7DEB7C158D1090FB6F894C9
:1036D000DEBF0FBECDBF789484B5826084BD84B553
:1036E000816084BD85B5826085BD85B5816085BDFD
:1036F00080916E00816080936E00109281008091B5
:10370000810082608093810080918100816080933C
:103710008100809180008160809380008091910081
:1037200082608093910080919100816080939100EC
:10373000809190008160809390008091C1008460AE
:103740008093C1008091C10082608093C10080910C
:10375000C10081608093C1008091C300816080932B
:10376000C3008091C00082608093C0008091C2003D
:1037700081608093C20080917A00846080937A0097
:1037800080917A00826080937A0080917A008160D3
:1037900080937A0080917A00806880937A001092FA
:1037A000AA011092A7011092A8018091D700816010
:1037B0008093D70080EA8093D80089B5806189BD65
:1037C00089B5826089BD09B400FEFDCF61E070E07B
:1037D00080E090E00E94D00C8091D8008F7C8061C6
:1037E0008093D8008091E000807F8093E0008091FA
:1037F000E1008E7E8093E1008DE08093E200559A97
:10380000209AEEEFFFE7859194918B3F9C4D19F440
:1038100081E08093A6011FB7F89480916C0181111B
:1038200027C0E5EEF5E18491E8EBF5E19491E82F0E
:10383000F0E0EE0FFF1FE856FE4FA591B491EC911A
:10384000E92321F461E081E10E94740B61E081E1F0
:103850000E94D70B8CB580618CBD8CB580648CBD0B
:1038600061E08FE00E94D70B61E080E10E94D70BFE
:1038700080916C018F5F80936C011FBF03EB11E09F
:10388000F80184910E5F1F4F31966491882319F0DF
:103890000E94D70BF5CF61E086E00E94740B61E0D7
:1038A00070E080E090E00E94D00C60E086E00E9432
:1038B000740B6AE070E080E090E00E94D00C61E060
:1038C00086E00E94740BE0EEF5E1E491F0E0EE0F8B
:1038D000FF1FEA53FA4E8591949190937201809361
:1038E0007101E3EBF5E1E491E0937001E8EDF5E1BE
:1038F000E491F0E0EE0FFF1FEA53FA4E85919491A8
:1039000090936F0180936E01EBEAF5E1E491E0930F
:103910006D018CB58C7F8CBD8DB581608DBDE091C6
:103920007101F0917201908180917001982B9083C8
:10393000A0916E01B0916F012C9190916D019095C5
:1039400092239C939081809589238083E6EAF1E01D
:1039500021E0E33BF20749F084918EBD00000DB4F5
:1039600007FEFDCF8EB53196F3CFE0916E01F09159
:103970006F01908180916D01892B8083E0917101AD
:10398000F0917201908180917001809589238083EC
:103990008091640081608093640080916400826003
:1039A00080936400809164008068809364008091BB
:1039B00064008064809364008091650081608093DE
:1039C00065000E94600D87FF12C00E947D0D60E0BF
:1039D00070E08AE00E94130C60E070E08BE00E94CF
:1039E000130C60E070E089E00E94130CFFCF0EEE34
:1039F0001FEF68E1C62ED12C78E0472E512C8C2D7C
:103A0000801B6FEF70E0681B71098AE00E94130C45
:103A10006FEF70E08BE00E94130C6FEF70E089E0B5
:103A20000E94130C48EC51E0BD2DB111BFEFFA011B
:103A30000024B193B193B193B1930394D1F7902E35
:103A400050EF0517A4F488EC91E00E94880D6BE11B
:103A500070E080E090E00E94D00C60EF961274C09D
:103A60006AEF70E080E090E00E94D00C6DC0980199
:103A700017FF04C022273327201B310B2770332761
:103A8000C80117FD079653E0959587955A95E1F77C
:103A900017FF05C00197F201E21BF30B9F015C01C8
:103AA000B694BA2CAA24B794A79440E050E07201CF
:103AB000E21AF30AB50160587F4F1B018F3F7FEF79
:103AC000970744F40196485A5F4F5101403B510516
:103AD00089F7B9CFD501A45ABD4F60E070E08F3FA0
:103AE000EFEF9E0709F47AC6FB01E40FF51FE851DA
:103AF000FF4F84903D01621873086A0C7B1CE82D0F
:103B0000F0E0022E02C0EE0FFF1F0A94E2F7C05849
:103B1000DF4FF983E883C058D040F3018080C0585C
:103B2000DF4FE881F981C058D040E829C058DF4F05
:103B3000F983E883C058D040C058DF4F8880C05810
:103B4000D040F30180824AC60F5F1F4F0931110533
:103B500009F055CF6EEE72E080E090E00E94D00C4C
:103B60006FEF70E08AE00E94130C6FEF70E08BE063
:103B70000E94130C6FEF70E089E00E94130C85E047
:103B80000E9439188DE00E9439180E94730F10921C
:103B90004C0180916400886080936400809165008E
:103BA0008860809365000E94730F88EC91E00E940A
:103BB000880D809164008E7F8093640087EC8093F1
:103BC0007C0080E280937B0062E070E080E090E027
:103BD0000E94D00C80917A00806480937A0080915A
:103BE0007A0086FDFCCF0091780010917900009555
:103BF00010958EE580937C0062E070E080E090E0BC
:103C00000E94D00C80917A00806480937A00809129
:103C10007A0086FDFCCFE0907800F09079000E9459
:103C2000AB0C9B01AC012095309540955095E094EC
:103C3000F094E09ED001E19EB00DF09EB00D1124F5
:103C40000E94C9246B017C010E94AB0C6C0D7D1D90
:103C50008E1D9F1D611571058105910511F00E9452
:103C60009924809164008160809364000E947D0D9E
:103C70000E94B1171092740180E00E94421484E007
:103C80000E94BC1014E0412E512C612C712C0E941A
:103C90000A0D8090750190907601A0907701B09008
:103CA0007801681579058A059B0588F4809174016F
:103CB000823011F00E941A1183B7817F83BF83B7CE
:103CC000816083BF889583B78E7F83BF7FC50E9445
:103CD000600DF82E8093730110917401123009F475
:103CE0004BC534F4112339F0113009F449C06EC5C5
:103CF00015300CF06BC50E940A0D681579058A0510
:103D00009B0508F463C5F3FE51C51330C1F410924E
:103D1000000181E08093010184E28093020188E147
:103D20008093030110930401109209011092050180
:103D300010920601109207011092080112C014306F
:103D400081F41092000181E08093010184E280936C
:103D5000020188E18093030183E0809304011092C3
:103D600009010E947D0D0E94B11780E00E94FC12A3
:103D7000809100010E94B91480E00E94BC1013C51C
:103D80000E940A0D681579058A059B0508F4F1C49F
:103D9000F7FE03C083E00E94B914F4FE03C080E084
:103DA0000E94B914F6FE03C089E00E94B914F5FE22
:103DB00003C086E00E94B914F3FE88C087E0E0E506
:103DC000F1E0DE01A059BF4F01900D928A95E1F715
:103DD00087E0FE01E059FF4FDE01A958BF4F019077
:103DE0000D928A95E1F7E3960FADE397E4961FAD48
:103DF000E497E5968FADE597811168C08091000149
:103E00008330A9F048F4811120C000910201109183
:103E10000301105F93E01AC0863081F08930A9F465
:103E200000910201085F1091030195E00FC000911D
:103E3000020110910301185092E008C000910201A4
:103E400008501091030194E001C090E0612F802F91
:103E5000C158DF4F9883CF57D0400E941714C158E4
:103E6000DF4F9881CF57D040811130C0EA960FAF15
:103E7000EA97EB961FAFEB97EC969FAFEC9787E036
:103E8000FE01E958FF4FDE01A759BF4F01900D9287
:103E90008A95E1F7E896AFADE897AA96AFAFAA97F3
:103EA000AC960FAFAC97AD961FAFAD97AE969FAFE8
:103EB000AE9787E08A9FD0011124A05BBE4FFE0120
:103EC000E759FF4F01900D928A95E1F7F2FE65C028
:103ED0008AE0E0E0F1E0DE011B9601900D928A9508
:103EE000E1F78AE0FE013B96DE01119601900D920A
:103EF0008A95E1F7CF8400E010E0612F802F0E94C7
:103F00003418185F1034C9F7085F0036A9F70E940B
:103F10007D0D0E94B117EE24E394F12C11E0D12C19
:103F2000CE14DF0414F022E001C023E040E152E0AF
:103F300064E0812F0E940D18185F2FEFE21AF20A39
:103F4000113271F77E0136E0E30EF11C11E0F7014A
:103F500081917F018A3399F020F4863391F424E033
:103F600007C08C3321F08E3361F42CE001C02AE0CD
:103F700040E152E06CE0812F0E940D1806C028E05D
:103F8000F7CF6CE0812F0E943418185F0E94B117A0
:103F90001931E9F682E080937401809174018230D6
:103FA00009F4D7C380900201EF968FAEEF9730905F
:103FB0000301F12C17E080914F01F8160CF0A6C315
:103FC0008F2C0F2C000C9908189DC001199D900D85
:103FD00011249C01205B3E4F5901F9018481882303
:103FE00009F492C3A0E1CA2EE32CEF960FADEF9730
:103FF0002081318142815381682F758186810E94A1
:104000003512882309F447C1F501DE01AE59BF4FCF
:10401000812F01900D928A95E1F7F501318104819C
:10402000E680323308F5E1100CC080910401815024
:1040300080930401811103C081E08093090174E140
:10404000E72E033069F028F4023009F0E4C003E001
:10405000E2C0043039F0053009F0DDC004E0DBC017
:1040600002E0D9C005E0D7C0383309F482C030F48B
:10407000343361F0363309F0CEC037C03C33A9F198
:104080003E3399F13A3309F0C6C02FC08091040144
:10409000843018F48F5F80930401A3962FADA3970B
:1040A00034E3A5964FADA597A6965FADA697602F72
:1040B000A8967FADA8978E2D0E948A14A3962FAF45
:1040C000A397A5964FAFA597A6965FAFA697A8967C
:1040D0007FAFA897062FE82E85E0C158DF4F3883C1
:1040E000CF57D0400E94F41091C0809105018823E1
:1040F00059F080910601882351F0809107018111C8
:1041000088C382E090E005C080E090E002C081E0DA
:1041100090E0FC01E050FF4F358386E0C158DF4F4F
:104120003883CF57D0400E94F410C158DF4F3881F8
:10413000CF57D040A3962FADA397A5964FADA59787
:10414000A6965FADA697602FA8967FADA8978E2DF7
:104150000E948A14A3962FAFA397A5964FAFA59759
:10416000A6965FAFA697A8967FAFA897062FE82ED2
:1041700052C0A3962FADA39738E3A5964FADA59750
:10418000A6965FADA697602FA8967FADA8978E2DB7
:104190000E948A14A3962FAFA397A5964FAFA59719
:1041A000A6965FAFA697A8967FAFA897062FE82E92
:1041B00080914E01803454F080E0C158DF4F388345
:1041C000CF57D0400E94FC1280E009C080E4C15863
:1041D000DF4F3883CF57D0400E94FC1281E00E940D
:1041E000BC10C158DF4F3881CF57D04084E2809354
:1041F000020188E1809303011092000180E0C15820
:10420000DF4F3883CF57D0400E94B914C158DF4FD9
:104210003881CF57D040A4963FAFA497A7960FAF51
:10422000A797A996EFAEA997FE01EE59FF4FDE01C1
:10423000AC5ABF4F812F01900D928A95E1F7669697
:104240003FAF669769960FAF69976B96EFAE6B9726
:10425000FE01EC5AFF4FDE01A55ABF4F812F01909E
:104260000D928A95E1F76D963FAF6D97A0960FAFCF
:10427000A097A296EFAEA297189DD001199DB00D00
:104280001124A05BBE4FFE01E55AFF4F812F019024
:104290000D928A95E1F7189DC001199D900D11248A
:1042A0009C01205B3E4F5901F9018181823308F066
:1042B00072C180915401882309F491C068E0C62E30
:1042C000E09053010091520120813181428153815C
:1042D0006481758186810E943512882309F47FC02C
:1042E000F501DE01A35BBF4F812F01900D928A95EE
:1042F000E1F7F501E2800381602F8E2D0E943418D2
:1043000068E0600F8E2D0E94341820914F01210328
:10431000F0011124E05BFE4F208384E38183E2827D
:10432000038381E08583848384E186832F5F2093E8
:104330004F016096EFAE609761960FAF61976296FE
:104340001FAE6297FE01E35BFF4FDE01DF96812F18
:1043500001900D928A95E1F72296EFAE229723966F
:104360000FAF239724961FAE2497FE01FF96DE0120
:10437000AA5BBF4F812F01900D928A95E1F7299694
:10438000EFAE29972A960FAF2A972B961FAE2B9741
:10439000FE01EA5BFF4FD501812F01900D928A95B6
:1043A000E1F720915001309151014091520150911B
:1043B00053016091540170915501809156010E9402
:1043C0008A1420935001309351014093520150932D
:1043D0005301609354017093550180935601189DC9
:1043E000C001199D900D1124805B9E4FFC01DE01E0
:1043F000D896212F01900D922A95E1F7FC01C180FA
:10440000A280B3800481E5802680002309F490C057
:104410006B2D8A2D0E94341868E06B0D8A2D0E9446
:104420003418E394F2E0FE1510F4EE24E394033024
:1044300059F128F4013049F0023081F067C00430AE
:10444000C9F1053009F44BC061C00E949424A30156
:1044500092010E94AA2402E0060F58C024E02B1506
:1044600008F053C05CEFD52EDB0C6D2D8A2D0E9419
:10447000171481114AC06D2D84E08A0D0E94171413
:10448000811143C0BD2C42C03FE23B15F0F140E139
:10449000D42EDB0C6D2D8A2D0E941714811135C08E
:1044A0006D2D84E08A0D0E94171481112EC044E006
:1044B000B40E2CC054E05A1540F53CEFD32EDA0C64
:1044C0006B2D8D2D0E94171481111FC06CE06B0D98
:1044D0008D2D0E941714811118C0AD2C17C06FE4E8
:1044E0006A1598F02CE0D22EDA0C6B2D8D2D0E94DF
:1044F000171481110AC06CE06B0D8D2D0E941714EA
:10450000811103C074E0A70E01C001E02C2D46EC20
:1045100051E06B2D8A2D0E940D182E2D2C0D46EC8E
:1045200051E068E06B0D8A2D0E940D1821102A942D
:10453000C9AEAAAEBBAE0CAFEDAE2EAEFE01F89684
:10454000DE019A96812F01900D928A95E1F7CBA614
:10455000ACA6BDA60EA7EFA628AAFE01BA96DE015C
:10456000D196812F01900D928A95E1F7CAAAABAA44
:10457000BCAA0DABEEAA2FAA189DD001199DB00DB3
:104580001124A05BBE4FFE01F196812F01900D9288
:104590008A95E1F7B9C0F901DE019396812F019068
:1045A0000D928A95E1F7F901C1800281D3802480C0
:1045B000E580B680222009F45BC06D2D802F0E941B
:1045C0003418E394F2E0FE1510F4EE24E39423E0B3
:1045D0002216E1F0221520F032E0231641F03DC012
:1045E00044E0241609F155E0251661F136C064E077
:1045F0006D1508F012C19CEFA92EAD0C6A2D802F0D
:104600000E941714811109C1DA2C27C07FE27D15A1
:1046100008F403C168E06D0D802F0E94171481110A
:10462000FCC084E0D80E19C0053008F4F6C08CEF49
:10463000A82EA00E6D2D8A2D0E9417148111EDC099
:104640000A2D0BC0003508F0E8C06D2D8CE0800FFE
:104650000E9417148111E1C00C5F2DEC2C0D2E0D62
:1046600040E152E06D2D802F0E940D18B110BA94D8
:10467000CCA20DA3DEA22FA2E8A6B9A6FE01B39696
:10468000DE015596812F01900D928A95E1F7CE8A31
:104690000F8BD88E298EEA8EBB8EFE017596DE01B9
:1046A0005C96812F01900D928A95E1F7CD8E0E8F49
:1046B000DF8E28A2E9A2BAA2189DC001199D900D13
:1046C0001124FC01E05BFE4F5F01FE017C96D501E9
:1046D000812F01900D928A95E1F7F5018181843354
:1046E00099F48681811110C02081318142815381EA
:1046F000648175810E948A14F5012083318342838D
:104700005383648375838683F39455CC8091090128
:104710008823F9F0813081F40E947D0D0E94B11749
:1047200084E0809374010E94421482E00E94BC10D5
:1047300082E080934D010DC00E947D0D0E94B11753
:1047400083E08093740188E00E94421483E00E9419
:10475000BC100E940A0DDC01CB018C599F4FAF4F5A
:10476000BF4F8093750190937601A0937701B0932A
:1047700078010E94B1172AC00E940A0D68157905B8
:104780008A059B0518F1F2FE11C00E947D0D40E0E4
:1047900050E060E08FEF0E94A612809100010E941D
:1047A000B9140E94B11781E0809374010E940A0D30
:1047B000DC01CB018C599F4FAF4FBF4F80937501E8
:1047C00090937601A0937701B093780180E090E018
:1047D000892B09F45CCA0E94000059CA21153105D1
:1047E00081F0FB01E40FF51FE851FF4FE491F0E089
:1047F0000E2C02C0F595E7950A94E2F78C90E82913
:10480000EC936F5F7F4F11966835710509F067C9AA
:1048100059C982E0809309018DCC212C27CFE1EE8C
:10482000F5E01382128288EE93E0A0E0B0E084838A
:104830009583A683B78381E391E0918380838FEF93
:104840009FEF95878487E4EBF1E01382128283E483
:1048500091E0918380838CE3868380E18187108659
:10486000178216861786108A118A128A1092C90535
:104870001092C8051092CB051092CA0581E0809372
:10488000CC05F093B301E093B20108958F929F920B
:10489000AF92BF92CF92DF92EF92FF92CF93DF93CE
:1048A000EC01688179818A819B816115710581059F
:1048B000910521F464E279ED8BE597E02DE133EF8A
:1048C00041E050E00E94AA2449015A019B01AC0139
:1048D000A7EAB1E40E94C9246B017C01ACEEB4EFFD
:1048E000A50194010E94D724DC01CB018C0D9D1DF4
:1048F000AE1DBF1DB7FF03C00197A109B048888353
:104900009983AA83BB83BC01CD019F77DF91CF91AF
:10491000FF90EF90DF90CF90BF90AF909F908F90DF
:1049200008950E944624089582E291E00E94462460
:104930000895609322017093230180932401909342
:1049400025010895F999FECF92BD81BDF89A992766
:1049500080B50895052E97FB1EF400940E94C12493
:1049600057FD07D00E94DC2407FC03D04EF40C94C2
:10497000C12450954095309521953F4F4F4F5F4F43
:10498000089590958095709561957F4F8F4F9F4FBB
:1049900008950E94FE24A59F900DB49F900DA49FA2
:1049A000800D911D11240895B7FF0C94C9240E9415
:1049B000C924821B930B0895A1E21A2EAA1BBB1BCC
:1049C000FD010DC0AA1FBB1FEE1FFF1FA217B307DB
:1049D000E407F50720F0A21BB30BE40BF50B661FF1
:1049E000771F881F991F1A9469F7609570958095B5
:1049F00090959B01AC01BD01CF010895A29FB0012C
:104A0000B39FC001A39F700D811D1124911DB29F02
:104A1000700D811D1124911D089597FB072E16F42A
:104A2000009407D077FD09D00E942E2507FC05D001
:104A30003EF4909581959F4F0895709561957F4FB5
:104A40000895EE0FFF1F0590F491E02D09940E9448
:104A5000FE24B7FF0895821B930B0895AA1BBB1B6E
:104A600051E107C0AA1FBB1FA617B70710F0A61B6E
:104A7000B70B881F991F5A95A9F780959095BC018F
:104A8000CD01089581E090E0F8940C944725F894C6
:024A9000FFCF56
:104A92000001241803000000000000010000FF00D4
:104AA200010000FF0000FFFFFFFF00E10000000027
:104AB20000000100000000C1808100000000000031
:104AC20000E7152C170816FD154E160C162A1600AF
:0C4AD200000000AB0F430B6F0B6E0B00DD
:00000001FF
